S0180000696E74727570745F756172745F6C65642E7372656347
S1130000382200202D0100002901000029010000F0
S113001000000000000000000000000000000000DC
S113002000000000000000000000000029010000A2
S11300300000000000000000290100002901000068
S1130040290100002901000029010000ED08000039
S113005029010000290100002901000029010000F4
S113006029010000110C00002901000029010000F1
S113007029010000290100002901000029010000D4
S113008029010000290100002901000029010000C4
S113009029010000290100002901000029010000B4
S11300A029010000290100002901000029010000A4
S11300B029010000290100002901000010B5064CA7
S11300C02378002B07D1054B002B02D0044800E015
S11300D000BF0123237010BDD800002000000000E1
S11300E02C0F0000084B10B5002B03D0074908481B
S11300F000E000BF07480368002B00D110BD064B89
S1130100002BFBD09847F9E700000000DC0000203A
S11301102C0F00002C0F00000000000010B5014B54
S1130120984710BDB9020000FEE7000010B5174A59
S1130130174B9A4211D01A00164B9A420DD2164A06
S113014003339B1A9B0801339B00002210480F497C
S11301508C58845004329A42FAD1104A104B9A4275
S11301600AD2D3430E495B1803218B4304339B18F3
S1130170002102C29342FCD10A4AFF210A4B8B435D
S113018093600A4B98470A4B9847FEE72C0F0000F0
S113019000000020D800002004000020D800002027
S11301A03402002000ED00E0000000000D0E00000D
S11301B0190D000070B540218823134AD150134A09
S11301C051698023DB000B435361C022D205802098
S11301D0400550608223DB050D4999620D499962FF
S11301E050605C215C5C04252C435C5490615A5C37
S11301F00120824302435A541E395A5C0E30824312
S11302005A54054B984770BD001C0040000800403C
S113021000000240001002C051030000064B4021C0
S1130220CC2299500331043A9950044AD369413994
S11302300B43D3617047C046001C004000080040D7
S113024030B58223DB054422995C0125A9430124AE
S11302502143C9B299543220195C353A91430C3A7E
S11302601143195445215A5CAA432243D2B25A5429
S11302701A5C36390A4021310A431A5430BD000051
S113028010B582B0064B9847002300931033054AFB
S113029005490648064CA047064B984702B010BDD6
S11302A01D020000F400002000040042E4010020CC
S11302B0A10500004102000010B50C4B9847C02373
S11302C0DB05802212029A619A608223DB05084AC8
S11302D09A62C02212069A624F215A5C012082431C
S11302E05A54044B9847044B984710BDE507000047
S11302F000800040B501000081020000EFF310838C
S1130300036072B6BFF35F8F7047BFF35F8F0368FC
S113031083F310887047000070B50C4B5C68A042F2
S11303200ED0012200210126FF2503E02A005318E4
S11303305B080AD1A042F9D9002A06D03100F6E7B9
S1130340024B1B68002B00D0984770BD04010020AD
S113035010B5054B012252425A6000221A6003482C
S1130360034B984710BDC046040100201903000048
S11303703508000070B506000C00150000280DD0EB
S11303800800431E9841C0B234220549054B9847E2
S113039033682A0021003000984770BD0020F3E73D
S11303A0780E0000DD06000070B506000C00150094
S11303B000280DD00800431E9841C0B23D220549D3
S11303C0054B984773682A0021003000984770BD98
S11303D00020F3E7780E0000DD06000010B50838B1
S11303E000230363436A002B00D0984710BD10B567
S11303F0083800230363C36A002B00D0984710BD5C
S113040010B504002C30044B9847236A083C002B99
S113041001D02000984710BD8107000070B504008A
S11304200E00150000281DD000291DD01000431E09
S113043098413C22FF320F490F4B98474423E25A1C
S11304400833E35A9A4211D1A6644C23E5520022A0
S1130450083BE252433B236320000830074B984794
S1130460280070BD0020E4E70020E2E71C204042A1
S1130470F7E7C0468C0E0000DD0600008D0B00007F
S113048070B5040001000839838F4C228A5A9A42BD
S11304900CD00A00896C5D1C44201552C95C2000F4
S11304A0044B98472000044B984770BD034B984772
S11304B0FBE7C046850B00008D0B0000950B000088
S11304C0F0B5CE46474680B585B005000E0017004E
S11304D0002815D0002913D0002A2AD1AC225200BA
S11304E029490020294B984703A8294B98472800FD
S11304F03430284B984703A8274B984700253CE005
S1130500AC22520020490020204B984703A8204BDE
S113051098473435280001951E4B9847804603A818
S11305201D4B984700254346002B26D0002F16D19B
S113053023E0AC22520014490120144B984703A82D
S1130540134B9847343528000195124B9847804641
S113055003A8114B984743460025002B0DD00024D7
S11305600E4B9946651CADB231190198C847013448
S1130570444502D2A3B29F42F4D8280005B00CBC73
S113058090469946F0BDC0468C0E0000DD06000082
S1130590FD020000C10700000B0300003907000042
S11305A0F8B504000D0016001F00002826D000290D
S11305B026D0002A26D01800431E98413A22144916
S11305C0144B9847200034303A003100124B9847BE
S11305D0002819D1200008302900104B9847002822
S11305E00BD10F4B63600F4B23600F4BA3600F4B7A
S11305F0E3600F4B23610F4B6361F8BD0020DDE71F
S11306000020DBE70020D9E70D204042F5E7C04693
S11306108C0E0000DD060000E5060000F50A00006F
S1130620C10400001D040000810400000104000056
S1130630DD030000EF03000010B50400431E9841E1
S1130640C0B261220449054B984720000830044B8E
S11306509847002010BDC0468C0E0000DD06000047
S1130660710B000070B505000E001400431E984184
S1130670C0B283221649174B9847012E11D0002E81
S113068004D0022E18D00D20404209E0AC62621E54
S11306909441E2B22800083001210F4B9847002012
S11306A070BD6C62621E9441E2B2280008300221DF
S11306B0094B98470020F3E7EC62621E9441E2B2D2
S11306C0280008300321044B98470020E8E7C0467F
S11306D08C0E0000DD0600009D0B0000002800D1F8
S11306E000BE704770B504000E00150000280BD042
S11306F0002918D00120002A07D128220C49002003
S11307000C4B98476B1E07E0002028220849094B30
S113071098476B1E2B4208D163600023A360E360FB
S11307202660002070BD0020EFE70D204042F9E76D
S1130730AC0E0000DD06000070B504000D000028BA
S113074015D00800431E9841C0B240220A490B4B01
S11307509847A368E2689A420BD062681340226803
S1130760D35C2B70A3680133A360002070BD00200C
S1130770EBE70A204042F9E7AC0E0000DD0600007A
S113078070B504000D00431E9841C0B251220A49BD
S11307900A4B98476368E26813402268D554E368BB
S11307A06168A2689A1A8A4201D9591AA160013370
S11307B0E360002070BDC046AC0E0000DD06000002
S11307C010B50400431E9841C0B267220349044B8C
S11307D09847E068A368C01A10BDC046AC0E00007C
S11307E0DD06000010B5084B5A685A60074B98475D
S11307F0074B9847074B9847074B9847FF20074BF1
S11308009847074B984710BD00400041FD09000080
S1130810150A0000F1090000550A0000CD09000086
S1130820250800009022D205137802218B4313700F
S1130830704700002A4B5B68DB071FD4284903225A
S11308404B681A42FCD1264B1B789B070ED5244AD1
S1130850137802218B431370110003224B681A4250
S1130860FCD11F4902224B681A42FCD101221C4BC5
S11308701A70190002324B681A42FCD1184901223D
S11308804B681A42FCD1164A137810218B4313701B
S1130890110003224B681A42FCD1114B00225A70FA
S11308A09A60802149009961DA6105321A621A78E6
S11308B0FE390A431A70190003224B681A42FCD10C
S11308C0084B082280215A50BFF34F8FBFF36F8F1C
S11308D00131FF315A501A60034B186000207047F1
S11308E00028004000E100E00C010020F0B5CE46F5
S11308F0474680B583B02F4B5A690192019A5A61D9
S11309002D4B1868431E9841C0B2DA222B492C4B58
S11309109847019B002B47D001235B429946294B02
S11309209846254F284D38E0013AD6B2B1420CD84A
S113093073185B10DAB20340DB005B5DA34208D09E
S11309409C42F1DD0132D1B2F0E74B46013305D0D0
S113095001E01C23994648463B689847019B0122C5
S1130960A240934301930198164B9847013844B22F
S1130970631C0AD0082C05D008230022002101267C
S1130980FF20DDE71C239946E5E70A4B5A690192EB
S1130990019A5A61019B002B06D00198C047013887
S11309A044B2631CE6D1F0E703B00CBC9046994610
S11309B0F0BDC046002800400C010020D80E000005
S11309C0DD060000B90D0000D00E0000C30707D5F6
S11309D0044A054B1A621900044A4B681342FCD1BD
S11309E07047C04606010100001C0040FD070000DE
S11309F00122014B1A71704700080040044BDA6968
S1130A00F82149010A40DA6101221A617047C0469F
S1130A10001400400E4B02221A7509325A7519004F
S1130A20073A8B691A42FCD1094904228B691A429C
S1130A30FCD10722064B9A7519000932CB681A4279
S1130A40FCD0034A137D80210B4313757047C046C5
S1130A50001000407047000010B504001F4BC3187D
S1130A609B0ADBB2002B04D01D4A1E4900201E4BFA
S1130A709847E369DB0718D40322E3691A42FCD1DF
S1130A8023689B070BD5236802229343236001321A
S1130A90E3691A42FCD10222E3691A42FCD105231C
S1130AA023600322E3691A42FCD10122E3691A425A
S1130AB0FCD10E4B23600322E3691A42FCD1C0230C
S1130AC09B0263600722E3691A42FCD1084BA381AD
S1130AD00023A3733022A354002010BD00FCFFBDEB
S1130AE05E020000F00E0000DD060000040010406D
S1130AF02BF6FFFF70B505000C00431E9841C0B2F1
S1130B00C4221449144B98472000144B98470028DA
S1130B1000D070BDAC61124B9C4217D0114B9C4667
S1130B206444A40A0934E3B22206F2D41F221A4010
S1130B30012393400C4A80215350BFF34F8FBFF3DE
S1130B406F8F0131FF3153501360E2E7074B1D6093
S1130B500923EBE7F00E0000DD060000590A00004F
S1130B600004004200FCFFBD00E100E01001002091
S1130B708269136802210B4313600131D36919425E
S1130B80FCD17047836989B2198570478369012252
S1130B909A757047836902229A75704770B504008C
S1130BA00D001600431E9841C0B2164A1649174B51
S1130BB0984702232A009A430ED1A369002E05D137
S1130BC001221A75A36901321A7570BD01229A7542
S1130BD0A36901329A75F8E7012D07D0032DF4D1EA
S1130BE0A369002E0BD080229A75EEE7A369002E2C
S1130BF002D104221A75E8E704229A75E5E78022F7
S1130C001A75E2E71E020000F00E0000DD06000087
S1130C1010B5194B18688469237EDB0702D5A37DC0
S1130C20DB070FD4237E9B0702D5A37D9B070ED43D
S1130C30237E5B0715D5628B37231A420CD04833C9
S1130C40638310BD0123237503689847F9E70223E2
S1130C50237583689847F4E7218DC9B243689847A0
S1130C60EFE7237EDB09ECD080232376C368984723
S1130C70638B9BB26383E4E710010020704700009C
S1130C8010B582B001226B46D91D1F481F4B9847EF
S1130C90C1B21F4B1B78002B12D16B46DA790D2A97
S1130CA024D00A2A22D01A4B012018700020587030
S1130CB058781818027158784018C0B2587015E066
S1130CC0134B5A786846C4799A18147158784018A6
S1130CD0C0B258700D2C0BD00A2C09D00C4B5B7889
S1130CE0DBB2C72B02D90022094B5A7002B010BDE7
S1130CF0084A01214C23D154054B5B78023BDBB2FB
S1130D004C315354EAE7C046E4010020A903000033
S1130D101401002094010020F0B583B01A4B9847C9
S1130D201A4C1B4A012120001A4DA8471A4A0021D7
S1130D302000A8472000194B9847194F194E3D0031
S1130D40194B0E3301933B1D00934C223B78012B2E
S1130D50FCD1B35C012BF9D100232B70114C4C2234
S1130D60A3547C3200990198104B98474D23E25CC0
S1130D7010320D4905480E4B9847C82200210098AF
S1130D800C4B9847E1E7C0461D010000E401002038
S1130D907D0C000065060000810C0000390600008F
S1130DA0140100209401002000000020550E0000D2
S1130DB075030000670E000010B50023002802D060
S1130DC000F004F8431C180010BDC046414208401E
S1130DD01C2101231B04984201D3000C10391B0A67
S1130DE0984201D3000A08391B09984201D300092B
S1130DF0043902A2105C401A7047C0461B1C1D1D1A
S1130E001E1E1E1E1F1F1F1F1F1F1F1F70B5002623
S1130E100C4D0D4C641BA410A64209D1002600F011
S1130E2075F80A4D0A4C641BA410A64205D170BD86
S1130E30B300EB5898470136EEE7B300EB589847F8
S1130E400136F2E7180F0000180F0000180F000019
S1130E501C0F0000002310B59A4200D110BDCC5CD9
S1130E60C4540133F8E703008218934200D1704759
S1130E7019700133F9E700002E2E2F68616C2F736F
S1130E8072632F68616C5F696F2E63002E2E2F686A
S1130E90616C2F7372632F68616C5F757361727418
S1130EA05F6173796E632E63000000002E2E2F683D
S1130EB0616C2F7574696C732F7372632F75746909
S1130EC06C735F72696E676275666665722E630025
S1130ED0080000001C0000002E2E2F68706C2F6587
S1130EE069632F68706C5F6569632E63000000009E
S1130EF02E2E2F68706C2F736572636F6D2F687060
S1130F006C5F736572636F6D2E630000F8B5C04645
S1130F10F8BC08BC9E467047E5000000F8B5C04622
S10F0F20F8BC08BC9E467047BD000000F1
S1130F2C596F7572206D6573736167653A200000A3
S1130F3C00000000000000000000000000000000A1
S1130F4C0000000000000000000000000000000091
S1130F5C0000000000000000000000000000000081
S1130F6C0000000000000000000000000000000071
S1130F7C0000000000000000000000000000000061
S1130F8C0000000000000000000000000000000051
S1130F9C0000000000000000000000000000000041
S1130FAC0000000000000000000000000000000031
S1130FBC0000000000000000000000000000000021
S1130FCC0000000000000000000000000000000011
S1130FDC0000000000000000000000000000000001
S1130FEC00000000000000000000000000000000F1
S10B0FFC0000000000000000E9
S9030000FC
