S0130000554152545F5357495443482E73726563A4
S1130000282200202D010000290100002901000000
S113001000000000000000000000000000000000DC
S113002000000000000000000000000029010000A2
S11300300000000000000000290100002901000068
S11300402901000029010000290100002901000004
S113005029010000290100002901000029010000F4
S113006029010000290100002901000029010000E4
S113007029010000190A00002901000029010000DB
S113008029010000290100002901000029010000C4
S113009029010000290100002901000029010000B4
S11300A029010000290100002901000029010000A4
S11300B029010000290100002901000010B5064CA7
S11300C02378002B07D1054B002B02D0044800E015
S11300D000BF0123237010BDD800002000000000E1
S11300E0400D0000084B10B5002B03D00749084809
S11300F000E000BF07480368002B00D110BD064B89
S1130100002BFBD09847F9E700000000DC0000203A
S1130110400D0000400D00000000000010B5014B30
S1130120984710BD51020000FEE7000010B5174AC1
S1130130174B9A4211D01A00164B9A420DD2164A06
S113014003339B1A9B0801339B00002210480F497C
S11301508C58845004329A42FAD1104A104B9A4275
S11301600AD2D3430E495B1803218B4304339B18F3
S1130170002102C29342FCD10A4AFF210A4B8B435D
S113018093600A4B98470A4B9847FEE7400D0000DE
S113019000000020D800002004000020D800002027
S11301A02802002000ED00E000000000410C0000E7
S11301B0210B0000064B4021DC2299500331143AF4
S11301C09950044AD36923390B43D3617047C0461D
S11301D0001C00400008004030B58223DB05CA2221
S11301E0995C0125A94301242143C9B29954B5203E
S11301F0195CBB3A91430C3A11431954CB215A5C14
S1130200AA432243D2B25A541A5CBC390A4021315F
S11302100A431A5430BD000010B582B0064B98470B
S1130220002300931033054A05490648064CA047AD
S1130230064B984702B010BDB5010000F400002041
S113024000140042D8010020D5040000D9010000A8
S113025010B50B4B9847C023DB05802212025A616C
S11302609A608223DB05074A9A62C02212069A62C8
S11302704F215A5C012082435A54034B984710BDC6
S1130280190700000080004019020000EFF31083FA
S1130290036072B6BFF35F8F7047BFF35F8F03686D
S11302A083F310887047000070B506000C00150039
S11302B000280DD00800431E9841C0B234220549DD
S11302C0054B984733682A0021003000984770BDD9
S11302D00020F3E7AC0C00001106000070B5060026
S11302E00C00150000280DD00800431E9841C0B230
S11302F03D220549054B984773682A0021003000C8
S1130300984770BD0020F3E7AC0C00001106000014
S113031010B5083800230363436A002B00D09847C4
S113032010BD10B5083800230363C36A002B00D046
S1130330984710BD10B504002C30044B9847236A2D
S1130340083C002B01D02000984710BDB5060000E2
S113035070B504000E00150000281DD000291DD022
S11303601000431E98413C22FF320F490F4B98471F
S11303704423E25A0833E35A9A4211D1A6644C2327
S1130380E5520022083BE252433B2363200008303D
S1130390074B9847280070BD0020E4E70020E2E7FF
S11303A01C204042F7E7C046C00C000011060000C4
S11303B09509000070B5040001000839838F4C22B0
S11303C08A5A9A420CD00A00896C5D1C442015524A
S11303D0C95C2000044B98472000044B984770BD2B
S11303E0034B9847FBE7C0468D09000095090000C0
S11303F09D090000F0B5CE46474680B585B005009E
S11304000E001700002815D0002913D0002A2AD185
S1130410AC22520029490020294B984703A8294BB4
S1130420984728003430284B984703A8274B98470F
S113043000253CE0AC22520020490020204B984784
S113044003A8204B98473435280001951E4B984744
S1130450804603A81D4B984700254346002B26D011
S1130460002F16D123E0AC22520014490120144B72
S1130470984703A8134B9847343528000195124B2D
S11304809847804603A8114B984743460025002B04
S11304900DD000240E4B9946651CADB2311901985C
S11304A0C8470134444502D2A3B29F42F4D828007D
S11304B005B00CBC90469946F0BDC046C00C000087
S11304C0110600008D020000F50600009B020000EA
S11304D06D060000F8B504000D0016001F0000288A
S11304E026D0002926D0002A26D01800431E984181
S11304F03A221449144B9847200034303A00310012
S1130500124B9847002819D1200008302900104BBD
S1130510984700280BD10F4B63600F4B23600F4BA0
S1130520A3600F4BE3600F4B23610F4B6361F8BD76
S11305300020DDE70020DBE70020D9E70D20404262
S1130540F5E7C046C00C00001106000019060000C3
S1130550FD080000F503000051030000B50300008E
S113056035030000110300002303000010B504004C
S1130570431E9841C0B261220449054B98472000AC
S11305800830044B9847002010BDC046C00C000042
S1130590110600007909000070B505000E00140072
S11305A0431E9841C0B283221649174B9847012E27
S11305B011D0002E04D0022E18D00D20404209E0A4
S11305C0AC62621E9441E2B22800083001210F4B54
S11305D09847002070BD6C62621E9441E2B228000C
S11305E008300221094B98470020F3E7EC62621EB1
S11305F09441E2B2280008300321044B98470020BC
S1130600E8E7C046C00C000011060000A509000080
S1130610002800D100BE704770B504000E0015001C
S113062000280BD0002918D00120002A07D1282245
S11306300C4900200C4B98476B1E07E00020282231
S11306400849094B98476B1E2B4208D1636000236D
S1130650A360E3602660002070BD0020EFE70D205A
S11306604042F9E7E00C00001106000070B50400F8
S11306700D00002815D00800431E9841C0B2402246
S11306800A490B4B9847A368E2689A420BD0626808
S113069013402268D35C2B70A3680133A36000204D
S11306A070BD0020EBE70A204042F9E7E00C0000AF
S11306B01106000070B504000D00431E9841C0B23D
S11306C051220A490A4B98476368E268134022683A
S11306D0D554E3686168A2689A1A8A4201D9591A02
S11306E0A1600133E360002070BDC046E00C00004F
S11306F01106000010B50400431E9841C0B26722E1
S11307000349044B9847E068A368C01A10BDC0466B
S1130710E00C00001106000010B5084B5A685A603E
S1130720074B9847074B9847074B9847074B984701
S1130730FF20074B9847074B984710BD00400041E6
S1130740050800001D080000F90700005D0800000E
S1130750D5070000590700009022D2051378022122
S11307608B431370704710B582B0EFF3108301937D
S113077072B69023DB051A780124A2431A7098609C
S1130780D9601A001379DB07FCD49023DB051869C0
S1130790019B83F3108802B010BD000010B582B035
S11307A0EFF31083019372B69023DB051A780124CA
S11307B0A2431A709860D9601A001379DB07FCD43D
S11307C0034B18685968019B83F3108802B010BD6D
S11307D010000048C30707D5044A054B1A621900E4
S11307E0044A4B681342FCD17047C046060101001D
S11307F0001C0040FD0700000122014B1A717047E4
S113080000080040044BDA69F82149010A40DA6122
S113081001221A617047C046001400400E4B0222A8
S11308201A7509325A751900073A8B691A42FCD1B4
S1130830094904228B691A42FCD10722064B9A7596
S113084019000932CB681A42FCD0034A137D802177
S11308500B4313757047C0460010004070470000FA
S113086010B504001F4BC3189B0ADBB2042B04D041
S11308701D4A1E4900201E4B9847E369DB0718D424
S11308800322E3691A42FCD123689B070BD5236832
S11308900222934323600132E3691A42FCD102220B
S11308A0E3691A42FCD1052323600322E3691A4257
S11308B0FCD10122E3691A42FCD10E4B23600322CE
S11308C0E3691A42FCD1C0239B0263600722E369F7
S11308D01A42FCD1084BA3810023A3733022A354F2
S11308E0002010BD00FCFFBD5E020000040D0000EE
S11308F011060000040031402BF6FFFF70B505001F
S11309000C00431E9841C0B2C4221449144B9847AA
S11309102000144B9847002800D070BDAC61124BE6
S11309209C4217D0114B9C466444A40A0934E3B298
S11309302206F2D41F221A40012393400C4A80213C
S11309405350BFF34F8FBFF36F8F0131FF315350BB
S11309501360E2E7074B1D600D23EBE7040D000075
S113096011060000610800000014004200FCFFBDF5
S113097000E100E0040100208269136802210B43B6
S113098013600131D3691942FCD17047836989B27C
S113099019857047836901229A7570478369022219
S11309A09A75704770B504000D001600431E9841F7
S11309B0C0B2164A1649174B984702232A009A4395
S11309C00ED1A369002E05D101221A75A369013243
S11309D01A7570BD01229A75A36901329A75F8E7F8
S11309E0012D07D0032DF4D1A369002E0BD0802252
S11309F09A75EEE7A369002E02D104221A75E8E77E
S1130A0004229A75E5E780221A75E2E71E020000C7
S1130A10040D00001106000010B5194B1868846914
S1130A20237EDB0702D5A37DDB070FD4237E9B0740
S1130A3002D5A37D9B070ED4237E5B0715D5628B5D
S1130A4037231A420CD04833638310BD0123237526
S1130A5003689847F9E70223237583689847F4E706
S1130A60218DC9B243689847EFE7237EDB09ECD0B8
S1130A7080232376C3689847638B9BB26383E4E740
S1130A80040100207047000010B582B001226B46BB
S1130A90D91D1F481F4B9847C1B21F4B1B78002B11
S1130AA012D16B46DA790D2A24D00A2A22D01A4BA5
S1130AB0012018700020587058781818027158785E
S1130AC04018C0B2587015E0134B5A786846C47980
S1130AD09A18147158784018C0B258700D2C0BD065
S1130AE00A2C09D00C4B5B78DBB2C72B02D900224D
S1130AF0094B5A7002B010BD084A01214C23D1544D
S1130B00054B5B78023BDBB24C315354EAE7C046F9
S1130B10D8010020DD020000080100208801002027
S1130B20F0B5DE4657464E464546E0B585B0364BF1
S1130B309847364C364A01212000364DA847364A9C
S1130B4000212000A8472000344B9847344D354BF2
S1130B509846354B0E3300932B00043301930AE07F
S1130B6080221202C023DB05DA61C82200212C484E
S1130B7004302E4B98474C222B78012BFCD1434652
S1130B809B5C012BF8D10023254A1370254C4C2281
S1130B90A3547C320199009E3000254B98474D2385
S1130BA0E35C00239946234B9B46234F02ABDC1D99
S1130BB030786421D8473030207001222100134856
S1130BC0B84730780A21D847C0B21C4B9A460A214C
S1130BD0984730312170012221000C48B847307801
S1130BE00A21D04730312170012221000748B8473B
S1130BF001239C46E1444C330A4AD35CDBB2013600
S1130C004B45D3DAACE7C0461D010000D8010020F3
S1130C10850A000099050000890A00006D0500009E
S1130C200801002088010020000000209B0C000027
S1130C30890C000067070000A90200009D0700005E
S1130C4070B500260C4D0D4C641BA410A64209D1AE
S1130C50002600F065F80A4D0A4C641BA410A64255
S1130C6005D170BDB300EB5898470136EEE7B300E9
S1130C70EB5898470136F2E72C0D00002C0D0000CC
S1130C802C0D0000300D0000002310B59A4200D155
S1130C9010BDCC5CC4540133F8E7030082189342BE
S1130CA000D1704719700133F9E700002E2E2F6828
S1130CB0616C2F7372632F68616C5F696F2E6300C0
S1130CC02E2E2F68616C2F7372632F68616C5F75B1
S1130CD0736172745F6173796E632E630000000048
S1130CE02E2E2F68616C2F7574696C732F73726369
S1130CF02F7574696C735F72696E67627566666579
S1130D00722E63002E2E2F68706C2F736572636FC2
S1130D106D2F68706C5F736572636F6D2E63000076
S1130D20F8B5C046F8BC08BC9E467047E500000014
S1130D30F8B5C046F8BC08BC9E467047BD0000002C
S1130D40596F7572206D6573736167653A20000091
S1130D50000000000000000000000000000000008F
S1130D60000000000000000000000000000000007F
S1130D70000000000000000000000000000000006F
S1130D80000000000000000000000000000000005F
S1130D90000000000000000000000000000000004F
S1130DA0000000000000000000000000000000003F
S1130DB0000000000000000000000000000000002F
S1130DC0000000000000000000000000000000001F
S1130DD0000000000000000000000000000000000F
S1130DE000000000000000000000000000000000FF
S1130DF000000000000000000000000000000000EF
S1130E0000000000000000000000000000000000DE
S10B0E100000000000000000D6
S9030000FC
